{
    "_format": "hh-sol-artifact-1",
    "contractName": "UntitledTokens",
    "sourceName": "contracts/UntitledTokens.sol",
    "abi": [
        {
            "inputs": [],
            "stateMutability": "nonpayable",
            "type": "constructor"
        },
        {
            "anonymous": false,
            "inputs": [
                {
                    "indexed": true,
                    "internalType": "address",
                    "name": "owner",
                    "type": "address"
                },
                {
                    "indexed": true,
                    "internalType": "address",
                    "name": "approved",
                    "type": "address"
                },
                {
                    "indexed": true,
                    "internalType": "uint256",
                    "name": "tokenId",
                    "type": "uint256"
                }
            ],
            "name": "Approval",
            "type": "event"
        },
        {
            "anonymous": false,
            "inputs": [
                {
                    "indexed": true,
                    "internalType": "address",
                    "name": "owner",
                    "type": "address"
                },
                {
                    "indexed": true,
                    "internalType": "address",
                    "name": "operator",
                    "type": "address"
                },
                {
                    "indexed": false,
                    "internalType": "bool",
                    "name": "approved",
                    "type": "bool"
                }
            ],
            "name": "ApprovalForAll",
            "type": "event"
        },
        {
            "anonymous": false,
            "inputs": [
                {
                    "indexed": true,
                    "internalType": "address",
                    "name": "previousOwner",
                    "type": "address"
                },
                {
                    "indexed": true,
                    "internalType": "address",
                    "name": "newOwner",
                    "type": "address"
                }
            ],
            "name": "OwnershipTransferred",
            "type": "event"
        },
        {
            "anonymous": false,
            "inputs": [
                {
                    "indexed": true,
                    "internalType": "address",
                    "name": "from",
                    "type": "address"
                },
                {
                    "indexed": true,
                    "internalType": "address",
                    "name": "to",
                    "type": "address"
                },
                {
                    "indexed": true,
                    "internalType": "uint256",
                    "name": "tokenId",
                    "type": "uint256"
                }
            ],
            "name": "Transfer",
            "type": "event"
        },
        {
            "inputs": [
                {
                    "internalType": "address",
                    "name": "to",
                    "type": "address"
                },
                {
                    "internalType": "uint256",
                    "name": "tokenId",
                    "type": "uint256"
                }
            ],
            "name": "approve",
            "outputs": [],
            "stateMutability": "nonpayable",
            "type": "function"
        },
        {
            "inputs": [
                {
                    "internalType": "address",
                    "name": "owner",
                    "type": "address"
                }
            ],
            "name": "balanceOf",
            "outputs": [
                {
                    "internalType": "uint256",
                    "name": "",
                    "type": "uint256"
                }
            ],
            "stateMutability": "view",
            "type": "function"
        },
        {
            "inputs": [
                {
                    "internalType": "uint256",
                    "name": "tokenId",
                    "type": "uint256"
                }
            ],
            "name": "getApproved",
            "outputs": [
                {
                    "internalType": "address",
                    "name": "",
                    "type": "address"
                }
            ],
            "stateMutability": "view",
            "type": "function"
        },
        {
            "inputs": [
                {
                    "internalType": "address",
                    "name": "owner",
                    "type": "address"
                },
                {
                    "internalType": "address",
                    "name": "operator",
                    "type": "address"
                }
            ],
            "name": "isApprovedForAll",
            "outputs": [
                {
                    "internalType": "bool",
                    "name": "",
                    "type": "bool"
                }
            ],
            "stateMutability": "view",
            "type": "function"
        },
        {
            "inputs": [],
            "name": "name",
            "outputs": [
                {
                    "internalType": "string",
                    "name": "",
                    "type": "string"
                }
            ],
            "stateMutability": "view",
            "type": "function"
        },
        {
            "inputs": [],
            "name": "owner",
            "outputs": [
                {
                    "internalType": "address",
                    "name": "",
                    "type": "address"
                }
            ],
            "stateMutability": "view",
            "type": "function"
        },
        {
            "inputs": [
                {
                    "internalType": "uint256",
                    "name": "tokenId",
                    "type": "uint256"
                }
            ],
            "name": "ownerOf",
            "outputs": [
                {
                    "internalType": "address",
                    "name": "",
                    "type": "address"
                }
            ],
            "stateMutability": "view",
            "type": "function"
        },
        {
            "inputs": [],
            "name": "renounceOwnership",
            "outputs": [],
            "stateMutability": "nonpayable",
            "type": "function"
        },
        {
            "inputs": [
                {
                    "internalType": "address",
                    "name": "to",
                    "type": "address"
                },
                {
                    "internalType": "uint256",
                    "name": "tokenId",
                    "type": "uint256"
                },
                {
                    "internalType": "string",
                    "name": "uri",
                    "type": "string"
                }
            ],
            "name": "safeMint",
            "outputs": [],
            "stateMutability": "nonpayable",
            "type": "function"
        },
        {
            "inputs": [
                {
                    "internalType": "address",
                    "name": "from",
                    "type": "address"
                },
                {
                    "internalType": "address",
                    "name": "to",
                    "type": "address"
                },
                {
                    "internalType": "uint256",
                    "name": "tokenId",
                    "type": "uint256"
                }
            ],
            "name": "safeTransferFrom",
            "outputs": [],
            "stateMutability": "nonpayable",
            "type": "function"
        },
        {
            "inputs": [
                {
                    "internalType": "address",
                    "name": "from",
                    "type": "address"
                },
                {
                    "internalType": "address",
                    "name": "to",
                    "type": "address"
                },
                {
                    "internalType": "uint256",
                    "name": "tokenId",
                    "type": "uint256"
                },
                {
                    "internalType": "bytes",
                    "name": "data",
                    "type": "bytes"
                }
            ],
            "name": "safeTransferFrom",
            "outputs": [],
            "stateMutability": "nonpayable",
            "type": "function"
        },
        {
            "inputs": [
                {
                    "internalType": "address",
                    "name": "operator",
                    "type": "address"
                },
                {
                    "internalType": "bool",
                    "name": "approved",
                    "type": "bool"
                }
            ],
            "name": "setApprovalForAll",
            "outputs": [],
            "stateMutability": "nonpayable",
            "type": "function"
        },
        {
            "inputs": [
                {
                    "internalType": "bytes4",
                    "name": "interfaceId",
                    "type": "bytes4"
                }
            ],
            "name": "supportsInterface",
            "outputs": [
                {
                    "internalType": "bool",
                    "name": "",
                    "type": "bool"
                }
            ],
            "stateMutability": "view",
            "type": "function"
        },
        {
            "inputs": [],
            "name": "symbol",
            "outputs": [
                {
                    "internalType": "string",
                    "name": "",
                    "type": "string"
                }
            ],
            "stateMutability": "view",
            "type": "function"
        },
        {
            "inputs": [
                {
                    "internalType": "uint256",
                    "name": "tokenId",
                    "type": "uint256"
                }
            ],
            "name": "tokenURI",
            "outputs": [
                {
                    "internalType": "string",
                    "name": "",
                    "type": "string"
                }
            ],
            "stateMutability": "view",
            "type": "function"
        },
        {
            "inputs": [
                {
                    "internalType": "address",
                    "name": "from",
                    "type": "address"
                },
                {
                    "internalType": "address",
                    "name": "to",
                    "type": "address"
                },
                {
                    "internalType": "uint256",
                    "name": "tokenId",
                    "type": "uint256"
                }
            ],
            "name": "transferFrom",
            "outputs": [],
            "stateMutability": "nonpayable",
            "type": "function"
        },
        {
            "inputs": [
                {
                    "internalType": "address",
                    "name": "newOwner",
                    "type": "address"
                }
            ],
            "name": "transferOwnership",
            "outputs": [],
            "stateMutability": "nonpayable",
            "type": "function"
        }
    ],
    "bytecode": "0x60806040523480156200001157600080fd5b506040518060400160405280600881526020017f556e7469746c65640000000000000000000000000000000000000000000000008152506040518060400160405280600381526020017f554e54000000000000000000000000000000000000000000000000000000000081525081600090816200008f919062000412565b508060019081620000a1919062000412565b505050620000c4620000b8620000ca60201b60201c565b620000d260201b60201c565b620004f9565b600033905090565b6000600760009054906101000a900473ffffffffffffffffffffffffffffffffffffffff16905081600760006101000a81548173ffffffffffffffffffffffffffffffffffffffff021916908373ffffffffffffffffffffffffffffffffffffffff1602179055508173ffffffffffffffffffffffffffffffffffffffff168173ffffffffffffffffffffffffffffffffffffffff167f8be0079c531659141344cd1fd0a4f28419497f9722a3daafe3b4186f6b6457e060405160405180910390a35050565b600081519050919050565b7f4e487b7100000000000000000000000000000000000000000000000000000000600052604160045260246000fd5b7f4e487b7100000000000000000000000000000000000000000000000000000000600052602260045260246000fd5b600060028204905060018216806200021a57607f821691505b60208210810362000230576200022f620001d2565b5b50919050565b60008190508160005260206000209050919050565b60006020601f8301049050919050565b600082821b905092915050565b6000600883026200029a7fffffffffffffffffffffffffffffffffffffffffffffffffffffffffffffffff826200025b565b620002a686836200025b565b95508019841693508086168417925050509392505050565b6000819050919050565b6000819050919050565b6000620002f3620002ed620002e784620002be565b620002c8565b620002be565b9050919050565b6000819050919050565b6200030f83620002d2565b620003276200031e82620002fa565b84845462000268565b825550505050565b600090565b6200033e6200032f565b6200034b81848462000304565b505050565b5b8181101562000373576200036760008262000334565b60018101905062000351565b5050565b601f821115620003c2576200038c8162000236565b62000397846200024b565b81016020851015620003a7578190505b620003bf620003b6856200024b565b83018262000350565b50505b505050565b600082821c905092915050565b6000620003e760001984600802620003c7565b1980831691505092915050565b6000620004028383620003d4565b9150826002028217905092915050565b6200041d8262000198565b67ffffffffffffffff811115620004395762000438620001a3565b5b62000445825462000201565b6200045282828562000377565b600060209050601f8311600181146200048a576000841562000475578287015190505b620004818582620003f4565b865550620004f1565b601f1984166200049a8662000236565b60005b82811015620004c4578489015182556001820191506020850194506020810190506200049d565b86831015620004e45784890151620004e0601f891682620003d4565b8355505b6001600288020188555050505b505050505050565b612e2580620005096000396000f3fe608060405234801561001057600080fd5b506004361061010b5760003560e01c8063715018a6116100a2578063b88d4fde11610071578063b88d4fde146102a4578063c87b56dd146102c0578063cd279c7c146102f0578063e985e9c51461030c578063f2fde38b1461033c5761010b565b8063715018a6146102425780638da5cb5b1461024c57806395d89b411461026a578063a22cb465146102885761010b565b806323b872dd116100de57806323b872dd146101aa57806342842e0e146101c65780636352211e146101e257806370a08231146102125761010b565b806301ffc9a71461011057806306fdde0314610140578063081812fc1461015e578063095ea7b31461018e575b600080fd5b61012a60048036038101906101259190611c03565b610358565b6040516101379190611c4b565b60405180910390f35b61014861043a565b6040516101559190611cf6565b60405180910390f35b61017860048036038101906101739190611d4e565b6104cc565b6040516101859190611dbc565b60405180910390f35b6101a860048036038101906101a39190611e03565b610512565b005b6101c460048036038101906101bf9190611e43565b610629565b005b6101e060048036038101906101db9190611e43565b610689565b005b6101fc60048036038101906101f79190611d4e565b6106a9565b6040516102099190611dbc565b60405180910390f35b61022c60048036038101906102279190611e96565b61072f565b6040516102399190611ed2565b60405180910390f35b61024a6107e6565b005b6102546107fa565b6040516102619190611dbc565b60405180910390f35b610272610824565b60405161027f9190611cf6565b60405180910390f35b6102a2600480360381019061029d9190611f19565b6108b6565b005b6102be60048036038101906102b9919061208e565b6108cc565b005b6102da60048036038101906102d59190611d4e565b61092e565b6040516102e79190611cf6565b60405180910390f35b61030a600480360381019061030591906121b2565b610940565b005b61032660048036038101906103219190612221565b610961565b6040516103339190611c4b565b60405180910390f35b61035660048036038101906103519190611e96565b6109f5565b005b60007f80ac58cd000000000000000000000000000000000000000000000000000000007bffffffffffffffffffffffffffffffffffffffffffffffffffffffff1916827bffffffffffffffffffffffffffffffffffffffffffffffffffffffff1916148061042357507f5b5e139f000000000000000000000000000000000000000000000000000000007bffffffffffffffffffffffffffffffffffffffffffffffffffffffff1916827bffffffffffffffffffffffffffffffffffffffffffffffffffffffff1916145b80610433575061043282610a78565b5b9050919050565b60606000805461044990612290565b80601f016020809104026020016040519081016040528092919081815260200182805461047590612290565b80156104c25780601f10610497576101008083540402835291602001916104c2565b820191906000526020600020905b8154815290600101906020018083116104a557829003601f168201915b5050505050905090565b60006104d782610ae2565b6004600083815260200190815260200160002060009054906101000a900473ffffffffffffffffffffffffffffffffffffffff169050919050565b600061051d826106a9565b90508073ffffffffffffffffffffffffffffffffffffffff168373ffffffffffffffffffffffffffffffffffffffff160361058d576040517f08c379a000000000000000000000000000000000000000000000000000000000815260040161058490612333565b60405180910390fd5b8073ffffffffffffffffffffffffffffffffffffffff166105ac610b2d565b73ffffffffffffffffffffffffffffffffffffffff1614806105db57506105da816105d5610b2d565b610961565b5b61061a576040517f08c379a0000000000000000000000000000000000000000000000000000000008152600401610611906123c5565b60405180910390fd5b6106248383610b35565b505050565b61063a610634610b2d565b82610bee565b610679576040517f08c379a000000000000000000000000000000000000000000000000000000000815260040161067090612457565b60405180910390fd5b610684838383610c83565b505050565b6106a4838383604051806020016040528060008152506108cc565b505050565b6000806106b583610f7c565b9050600073ffffffffffffffffffffffffffffffffffffffff168173ffffffffffffffffffffffffffffffffffffffff1603610726576040517f08c379a000000000000000000000000000000000000000000000000000000000815260040161071d906124c3565b60405180910390fd5b80915050919050565b60008073ffffffffffffffffffffffffffffffffffffffff168273ffffffffffffffffffffffffffffffffffffffff160361079f576040517f08c379a000000000000000000000000000000000000000000000000000000000815260040161079690612555565b60405180910390fd5b600360008373ffffffffffffffffffffffffffffffffffffffff1673ffffffffffffffffffffffffffffffffffffffff168152602001908152602001600020549050919050565b6107ee610fb9565b6107f86000611037565b565b6000600760009054906101000a900473ffffffffffffffffffffffffffffffffffffffff16905090565b60606001805461083390612290565b80601f016020809104026020016040519081016040528092919081815260200182805461085f90612290565b80156108ac5780601f10610881576101008083540402835291602001916108ac565b820191906000526020600020905b81548152906001019060200180831161088f57829003601f168201915b5050505050905090565b6108c86108c1610b2d565b83836110fd565b5050565b6108dd6108d7610b2d565b83610bee565b61091c576040517f08c379a000000000000000000000000000000000000000000000000000000000815260040161091390612457565b60405180910390fd5b61092884848484611269565b50505050565b6060610939826112c5565b9050919050565b610948610fb9565b61095283836113d7565b61095c82826113f5565b505050565b6000600560008473ffffffffffffffffffffffffffffffffffffffff1673ffffffffffffffffffffffffffffffffffffffff16815260200190815260200160002060008373ffffffffffffffffffffffffffffffffffffffff1673ffffffffffffffffffffffffffffffffffffffff16815260200190815260200160002060009054906101000a900460ff16905092915050565b6109fd610fb9565b600073ffffffffffffffffffffffffffffffffffffffff168173ffffffffffffffffffffffffffffffffffffffff1603610a6c576040517f08c379a0000000000000000000000000000000000000000000000000000000008152600401610a63906125e7565b60405180910390fd5b610a7581611037565b50565b60007f01ffc9a7000000000000000000000000000000000000000000000000000000007bffffffffffffffffffffffffffffffffffffffffffffffffffffffff1916827bffffffffffffffffffffffffffffffffffffffffffffffffffffffff1916149050919050565b610aeb81611462565b610b2a576040517f08c379a0000000000000000000000000000000000000000000000000000000008152600401610b21906124c3565b60405180910390fd5b50565b600033905090565b816004600083815260200190815260200160002060006101000a81548173ffffffffffffffffffffffffffffffffffffffff021916908373ffffffffffffffffffffffffffffffffffffffff160217905550808273ffffffffffffffffffffffffffffffffffffffff16610ba8836106a9565b73ffffffffffffffffffffffffffffffffffffffff167f8c5be1e5ebec7d5bd14f71427d1e84f3dd0314c0f7b2291e5b200ac8c7c3b92560405160405180910390a45050565b600080610bfa836106a9565b90508073ffffffffffffffffffffffffffffffffffffffff168473ffffffffffffffffffffffffffffffffffffffff161480610c3c5750610c3b8185610961565b5b80610c7a57508373ffffffffffffffffffffffffffffffffffffffff16610c62846104cc565b73ffffffffffffffffffffffffffffffffffffffff16145b91505092915050565b8273ffffffffffffffffffffffffffffffffffffffff16610ca3826106a9565b73ffffffffffffffffffffffffffffffffffffffff1614610cf9576040517f08c379a0000000000000000000000000000000000000000000000000000000008152600401610cf090612679565b60405180910390fd5b600073ffffffffffffffffffffffffffffffffffffffff168273ffffffffffffffffffffffffffffffffffffffff1603610d68576040517f08c379a0000000000000000000000000000000000000000000000000000000008152600401610d5f9061270b565b60405180910390fd5b610d7583838360016114a3565b8273ffffffffffffffffffffffffffffffffffffffff16610d95826106a9565b73ffffffffffffffffffffffffffffffffffffffff1614610deb576040517f08c379a0000000000000000000000000000000000000000000000000000000008152600401610de290612679565b60405180910390fd5b6004600082815260200190815260200160002060006101000a81549073ffffffffffffffffffffffffffffffffffffffff02191690556001600360008573ffffffffffffffffffffffffffffffffffffffff1673ffffffffffffffffffffffffffffffffffffffff168152602001908152602001600020600082825403925050819055506001600360008473ffffffffffffffffffffffffffffffffffffffff1673ffffffffffffffffffffffffffffffffffffffff16815260200190815260200160002060008282540192505081905550816002600083815260200190815260200160002060006101000a81548173ffffffffffffffffffffffffffffffffffffffff021916908373ffffffffffffffffffffffffffffffffffffffff160217905550808273ffffffffffffffffffffffffffffffffffffffff168473ffffffffffffffffffffffffffffffffffffffff167fddf252ad1be2c89b69c2b068fc378daa952ba7f163c4a11628f55a4df523b3ef60405160405180910390a4610f7783838360016114a9565b505050565b60006002600083815260200190815260200160002060009054906101000a900473ffffffffffffffffffffffffffffffffffffffff169050919050565b610fc1610b2d565b73ffffffffffffffffffffffffffffffffffffffff16610fdf6107fa565b73ffffffffffffffffffffffffffffffffffffffff1614611035576040517f08c379a000000000000000000000000000000000000000000000000000000000815260040161102c90612777565b60405180910390fd5b565b6000600760009054906101000a900473ffffffffffffffffffffffffffffffffffffffff16905081600760006101000a81548173ffffffffffffffffffffffffffffffffffffffff021916908373ffffffffffffffffffffffffffffffffffffffff1602179055508173ffffffffffffffffffffffffffffffffffffffff168173ffffffffffffffffffffffffffffffffffffffff167f8be0079c531659141344cd1fd0a4f28419497f9722a3daafe3b4186f6b6457e060405160405180910390a35050565b8173ffffffffffffffffffffffffffffffffffffffff168373ffffffffffffffffffffffffffffffffffffffff160361116b576040517f08c379a0000000000000000000000000000000000000000000000000000000008152600401611162906127e3565b60405180910390fd5b80600560008573ffffffffffffffffffffffffffffffffffffffff1673ffffffffffffffffffffffffffffffffffffffff16815260200190815260200160002060008473ffffffffffffffffffffffffffffffffffffffff1673ffffffffffffffffffffffffffffffffffffffff16815260200190815260200160002060006101000a81548160ff0219169083151502179055508173ffffffffffffffffffffffffffffffffffffffff168373ffffffffffffffffffffffffffffffffffffffff167f17307eab39ab6107e8899845ad3d59bd9653f200f220920489ca2b5937696c318360405161125c9190611c4b565b60405180910390a3505050565b611274848484610c83565b611280848484846114af565b6112bf576040517f08c379a00000000000000000000000000000000000000000000000000000000081526004016112b690612875565b60405180910390fd5b50505050565b60606112d082610ae2565b60006006600084815260200190815260200160002080546112f090612290565b80601f016020809104026020016040519081016040528092919081815260200182805461131c90612290565b80156113695780601f1061133e57610100808354040283529160200191611369565b820191906000526020600020905b81548152906001019060200180831161134c57829003601f168201915b50505050509050600061137a611636565b9050600081510361138f5781925050506113d2565b6000825111156113c45780826040516020016113ac9291906128d1565b604051602081830303815290604052925050506113d2565b6113cd84611673565b925050505b919050565b6113f18282604051806020016040528060008152506116db565b5050565b6113fe82611462565b61143d576040517f08c379a000000000000000000000000000000000000000000000000000000000815260040161143490612967565b60405180910390fd5b8060066000848152602001908152602001600020908161145d9190612b33565b505050565b60008073ffffffffffffffffffffffffffffffffffffffff1661148483610f7c565b73ffffffffffffffffffffffffffffffffffffffff1614159050919050565b50505050565b50505050565b60006114d08473ffffffffffffffffffffffffffffffffffffffff16611736565b15611629578373ffffffffffffffffffffffffffffffffffffffff1663150b7a026114f9610b2d565b8786866040518563ffffffff1660e01b815260040161151b9493929190612c5a565b6020604051808303816000875af192505050801561155757506040513d601f19601f820116820180604052508101906115549190612cbb565b60015b6115d9573d8060008114611587576040519150601f19603f3d011682016040523d82523d6000602084013e61158c565b606091505b5060008151036115d1576040517f08c379a00000000000000000000000000000000000000000000000000000000081526004016115c890612875565b60405180910390fd5b805181602001fd5b63150b7a0260e01b7bffffffffffffffffffffffffffffffffffffffffffffffffffffffff1916817bffffffffffffffffffffffffffffffffffffffffffffffffffffffff19161491505061162e565b600190505b949350505050565b60606040518060400160405280600781526020017f697066733a2f2f00000000000000000000000000000000000000000000000000815250905090565b606061167e82610ae2565b6000611688611636565b905060008151116116a857604051806020016040528060008152506116d3565b806116b284611759565b6040516020016116c39291906128d1565b6040516020818303038152906040525b915050919050565b6116e58383611827565b6116f260008484846114af565b611731576040517f08c379a000000000000000000000000000000000000000000000000000000000815260040161172890612875565b60405180910390fd5b505050565b6000808273ffffffffffffffffffffffffffffffffffffffff163b119050919050565b60606000600161176884611a44565b01905060008167ffffffffffffffff81111561178757611786611f63565b5b6040519080825280601f01601f1916602001820160405280156117b95781602001600182028036833780820191505090505b509050600082602001820190505b60011561181c578080600190039150507f3031323334353637383961626364656600000000000000000000000000000000600a86061a8153600a85816118105761180f612ce8565b5b049450600085036117c7575b819350505050919050565b600073ffffffffffffffffffffffffffffffffffffffff168273ffffffffffffffffffffffffffffffffffffffff1603611896576040517f08c379a000000000000000000000000000000000000000000000000000000000815260040161188d90612d63565b60405180910390fd5b61189f81611462565b156118df576040517f08c379a00000000000000000000000000000000000000000000000000000000081526004016118d690612dcf565b60405180910390fd5b6118ed6000838360016114a3565b6118f681611462565b15611936576040517f08c379a000000000000000000000000000000000000000000000000000000000815260040161192d90612dcf565b60405180910390fd5b6001600360008473ffffffffffffffffffffffffffffffffffffffff1673ffffffffffffffffffffffffffffffffffffffff16815260200190815260200160002060008282540192505081905550816002600083815260200190815260200160002060006101000a81548173ffffffffffffffffffffffffffffffffffffffff021916908373ffffffffffffffffffffffffffffffffffffffff160217905550808273ffffffffffffffffffffffffffffffffffffffff16600073ffffffffffffffffffffffffffffffffffffffff167fddf252ad1be2c89b69c2b068fc378daa952ba7f163c4a11628f55a4df523b3ef60405160405180910390a4611a406000838360016114a9565b5050565b600080600090507a184f03e93ff9f4daa797ed6e38ed64bf6a1f0100000000000000008310611aa2577a184f03e93ff9f4daa797ed6e38ed64bf6a1f0100000000000000008381611a9857611a97612ce8565b5b0492506040810190505b6d04ee2d6d415b85acef81000000008310611adf576d04ee2d6d415b85acef81000000008381611ad557611ad4612ce8565b5b0492506020810190505b662386f26fc100008310611b0e57662386f26fc100008381611b0457611b03612ce8565b5b0492506010810190505b6305f5e1008310611b37576305f5e1008381611b2d57611b2c612ce8565b5b0492506008810190505b6127108310611b5c576127108381611b5257611b51612ce8565b5b0492506004810190505b60648310611b7f5760648381611b7557611b74612ce8565b5b0492506002810190505b600a8310611b8e576001810190505b80915050919050565b6000604051905090565b600080fd5b600080fd5b60007fffffffff0000000000000000000000000000000000000000000000000000000082169050919050565b611be081611bab565b8114611beb57600080fd5b50565b600081359050611bfd81611bd7565b92915050565b600060208284031215611c1957611c18611ba1565b5b6000611c2784828501611bee565b91505092915050565b60008115159050919050565b611c4581611c30565b82525050565b6000602082019050611c606000830184611c3c565b92915050565b600081519050919050565b600082825260208201905092915050565b60005b83811015611ca0578082015181840152602081019050611c85565b60008484015250505050565b6000601f19601f8301169050919050565b6000611cc882611c66565b611cd28185611c71565b9350611ce2818560208601611c82565b611ceb81611cac565b840191505092915050565b60006020820190508181036000830152611d108184611cbd565b905092915050565b6000819050919050565b611d2b81611d18565b8114611d3657600080fd5b50565b600081359050611d4881611d22565b92915050565b600060208284031215611d6457611d63611ba1565b5b6000611d7284828501611d39565b91505092915050565b600073ffffffffffffffffffffffffffffffffffffffff82169050919050565b6000611da682611d7b565b9050919050565b611db681611d9b565b82525050565b6000602082019050611dd16000830184611dad565b92915050565b611de081611d9b565b8114611deb57600080fd5b50565b600081359050611dfd81611dd7565b92915050565b60008060408385031215611e1a57611e19611ba1565b5b6000611e2885828601611dee565b9250506020611e3985828601611d39565b9150509250929050565b600080600060608486031215611e5c57611e5b611ba1565b5b6000611e6a86828701611dee565b9350506020611e7b86828701611dee565b9250506040611e8c86828701611d39565b9150509250925092565b600060208284031215611eac57611eab611ba1565b5b6000611eba84828501611dee565b91505092915050565b611ecc81611d18565b82525050565b6000602082019050611ee76000830184611ec3565b92915050565b611ef681611c30565b8114611f0157600080fd5b50565b600081359050611f1381611eed565b92915050565b60008060408385031215611f3057611f2f611ba1565b5b6000611f3e85828601611dee565b9250506020611f4f85828601611f04565b9150509250929050565b600080fd5b600080fd5b7f4e487b7100000000000000000000000000000000000000000000000000000000600052604160045260246000fd5b611f9b82611cac565b810181811067ffffffffffffffff82111715611fba57611fb9611f63565b5b80604052505050565b6000611fcd611b97565b9050611fd98282611f92565b919050565b600067ffffffffffffffff821115611ff957611ff8611f63565b5b61200282611cac565b9050602081019050919050565b82818337600083830152505050565b600061203161202c84611fde565b611fc3565b90508281526020810184848401111561204d5761204c611f5e565b5b61205884828561200f565b509392505050565b600082601f83011261207557612074611f59565b5b813561208584826020860161201e565b91505092915050565b600080600080608085870312156120a8576120a7611ba1565b5b60006120b687828801611dee565b94505060206120c787828801611dee565b93505060406120d887828801611d39565b925050606085013567ffffffffffffffff8111156120f9576120f8611ba6565b5b61210587828801612060565b91505092959194509250565b600067ffffffffffffffff82111561212c5761212b611f63565b5b61213582611cac565b9050602081019050919050565b600061215561215084612111565b611fc3565b90508281526020810184848401111561217157612170611f5e565b5b61217c84828561200f565b509392505050565b600082601f83011261219957612198611f59565b5b81356121a9848260208601612142565b91505092915050565b6000806000606084860312156121cb576121ca611ba1565b5b60006121d986828701611dee565b93505060206121ea86828701611d39565b925050604084013567ffffffffffffffff81111561220b5761220a611ba6565b5b61221786828701612184565b9150509250925092565b6000806040838503121561223857612237611ba1565b5b600061224685828601611dee565b925050602061225785828601611dee565b9150509250929050565b7f4e487b7100000000000000000000000000000000000000000000000000000000600052602260045260246000fd5b600060028204905060018216806122a857607f821691505b6020821081036122bb576122ba612261565b5b50919050565b7f4552433732313a20617070726f76616c20746f2063757272656e74206f776e6560008201527f7200000000000000000000000000000000000000000000000000000000000000602082015250565b600061231d602183611c71565b9150612328826122c1565b604082019050919050565b6000602082019050818103600083015261234c81612310565b9050919050565b7f4552433732313a20617070726f76652063616c6c6572206973206e6f7420746f60008201527f6b656e206f776e6572206f7220617070726f76656420666f7220616c6c000000602082015250565b60006123af603d83611c71565b91506123ba82612353565b604082019050919050565b600060208201905081810360008301526123de816123a2565b9050919050565b7f4552433732313a2063616c6c6572206973206e6f7420746f6b656e206f776e6560008201527f72206f7220617070726f76656400000000000000000000000000000000000000602082015250565b6000612441602d83611c71565b915061244c826123e5565b604082019050919050565b6000602082019050818103600083015261247081612434565b9050919050565b7f4552433732313a20696e76616c696420746f6b656e2049440000000000000000600082015250565b60006124ad601883611c71565b91506124b882612477565b602082019050919050565b600060208201905081810360008301526124dc816124a0565b9050919050565b7f4552433732313a2061646472657373207a65726f206973206e6f74206120766160008201527f6c6964206f776e65720000000000000000000000000000000000000000000000602082015250565b600061253f602983611c71565b915061254a826124e3565b604082019050919050565b6000602082019050818103600083015261256e81612532565b9050919050565b7f4f776e61626c653a206e6577206f776e657220697320746865207a65726f206160008201527f6464726573730000000000000000000000000000000000000000000000000000602082015250565b60006125d1602683611c71565b91506125dc82612575565b604082019050919050565b60006020820190508181036000830152612600816125c4565b9050919050565b7f4552433732313a207472616e736665722066726f6d20696e636f72726563742060008201527f6f776e6572000000000000000000000000000000000000000000000000000000602082015250565b6000612663602583611c71565b915061266e82612607565b604082019050919050565b6000602082019050818103600083015261269281612656565b9050919050565b7f4552433732313a207472616e7366657220746f20746865207a65726f2061646460008201527f7265737300000000000000000000000000000000000000000000000000000000602082015250565b60006126f5602483611c71565b915061270082612699565b604082019050919050565b60006020820190508181036000830152612724816126e8565b9050919050565b7f4f776e61626c653a2063616c6c6572206973206e6f7420746865206f776e6572600082015250565b6000612761602083611c71565b915061276c8261272b565b602082019050919050565b6000602082019050818103600083015261279081612754565b9050919050565b7f4552433732313a20617070726f766520746f2063616c6c657200000000000000600082015250565b60006127cd601983611c71565b91506127d882612797565b602082019050919050565b600060208201905081810360008301526127fc816127c0565b9050919050565b7f4552433732313a207472616e7366657220746f206e6f6e20455243373231526560008201527f63656976657220696d706c656d656e7465720000000000000000000000000000602082015250565b600061285f603283611c71565b915061286a82612803565b604082019050919050565b6000602082019050818103600083015261288e81612852565b9050919050565b600081905092915050565b60006128ab82611c66565b6128b58185612895565b93506128c5818560208601611c82565b80840191505092915050565b60006128dd82856128a0565b91506128e982846128a0565b91508190509392505050565b7f45524337323155524953746f726167653a2055524920736574206f66206e6f6e60008201527f6578697374656e7420746f6b656e000000000000000000000000000000000000602082015250565b6000612951602e83611c71565b915061295c826128f5565b604082019050919050565b6000602082019050818103600083015261298081612944565b9050919050565b60008190508160005260206000209050919050565b60006020601f8301049050919050565b600082821b905092915050565b6000600883026129e97fffffffffffffffffffffffffffffffffffffffffffffffffffffffffffffffff826129ac565b6129f386836129ac565b95508019841693508086168417925050509392505050565b6000819050919050565b6000612a30612a2b612a2684611d18565b612a0b565b611d18565b9050919050565b6000819050919050565b612a4a83612a15565b612a5e612a5682612a37565b8484546129b9565b825550505050565b600090565b612a73612a66565b612a7e818484612a41565b505050565b5b81811015612aa257612a97600082612a6b565b600181019050612a84565b5050565b601f821115612ae757612ab881612987565b612ac18461299c565b81016020851015612ad0578190505b612ae4612adc8561299c565b830182612a83565b50505b505050565b600082821c905092915050565b6000612b0a60001984600802612aec565b1980831691505092915050565b6000612b238383612af9565b9150826002028217905092915050565b612b3c82611c66565b67ffffffffffffffff811115612b5557612b54611f63565b5b612b5f8254612290565b612b6a828285612aa6565b600060209050601f831160018114612b9d5760008415612b8b578287015190505b612b958582612b17565b865550612bfd565b601f198416612bab86612987565b60005b82811015612bd357848901518255600182019150602085019450602081019050612bae565b86831015612bf05784890151612bec601f891682612af9565b8355505b6001600288020188555050505b505050505050565b600081519050919050565b600082825260208201905092915050565b6000612c2c82612c05565b612c368185612c10565b9350612c46818560208601611c82565b612c4f81611cac565b840191505092915050565b6000608082019050612c6f6000830187611dad565b612c7c6020830186611dad565b612c896040830185611ec3565b8181036060830152612c9b8184612c21565b905095945050505050565b600081519050612cb581611bd7565b92915050565b600060208284031215612cd157612cd0611ba1565b5b6000612cdf84828501612ca6565b91505092915050565b7f4e487b7100000000000000000000000000000000000000000000000000000000600052601260045260246000fd5b7f4552433732313a206d696e7420746f20746865207a65726f2061646472657373600082015250565b6000612d4d602083611c71565b9150612d5882612d17565b602082019050919050565b60006020820190508181036000830152612d7c81612d40565b9050919050565b7f4552433732313a20746f6b656e20616c7265616479206d696e74656400000000600082015250565b6000612db9601c83611c71565b9150612dc482612d83565b602082019050919050565b60006020820190508181036000830152612de881612dac565b905091905056fea2646970667358221220d5c9062b5872b298ccec4f255fe957b01ad5aef770005c7ba280c991b479fe9264736f6c63430008110033",
    "linkReferences": {},
    "deployedLinkReferences": {}
}